:1000000033EF04F00000000000EF00F000000000FB
:0A0010000000000000000000F3D71C
:10001C000B840BAE19EF00F0010E036E026A016A3D
:0A002C00006A0A360232FF0E1200CD
:080036000AAE029E000E12004A
:10003E00086A096A100E0C6E01340836093604502F
:10004E00085E0550D8A0053C095ED8B007D0045014
:10005E0008260550D8B0053C0926D8900036013642
:06006E000C2EEAD712007F
:0E007400026A016A006A086A036A000E12003E
:0E008200ACB202D00000FCD7E5C0ADFF12000A
:100090000B820BAE52EF00F0036802680168006843
:0800A0000A360232FF0E1200C5
:1000A8000B800BAE60EF00F0026A0AAEFF0E026E24
:0C00B800016E006E0A360232FF0E1200CC
:1000C4000C6A0E6A0250D8A47BEF00F001C002F063
:1000D40000C001F0006A0E860250D8A47BEF00F045
:1000E40001C002F0016A0E960E880250D8B48DEF5A
:1000F40000F00E50035ED8A4D8A092EF00F0D89080
:1001040002BE97EF00F0003601360236032E82EF6E
:1001140000F092EF00F0010E0C6EAADF9AEF00F0EF
:10012400020E0C6E79DF9AEF00F0040E0C6E81DF84
:020134001200B7
:080136000B6A0B86FF0E12009C
:10013E000001E26B050EE25D0AE2E251E025E16E9E
:10014E00000EE121E26E200EE66EE22BF3D7E251B5
:10015E00E025E16E000EE121E26EE66AE207E25171
:10016E00E025E36F000EE121E46F0A0E046E000E2F
:10017E00056EDEC000F0DFC001F05ADF08C000F0EF
:10018E0009C001F0300E0026E3C0E1FFE4C0E2FF3B
:10019E0000C0E6FF0A0E046E000E056EDEC000F013
:1001AE00DFC001F045DF00C0DEF001C0DFF0000E61
:1001BE00011802E1000E001801E102D0E207CFD7CC
:0201CE0012001D
:1001D000DEC004F0DFC005F004C002F005C003F08B
:1001E000044A052AE0C000F0E1C001F00001E04B44
:1001F000E12B00C0E9FF01C0EAFF02C0E1FF03C03C
:10020000E2FFEECFE6FF02C0E9FF03C0EAFFEE52D5
:0E02100001E0E2D7DEC000F0DFC001F0120016
:10021E000001E16BDEC0E9FFDFC0EAFFEECFE0F0E8
:10022E00E051000A0EE0E0C0E5F024DF0001E12B12
:10023E00E151DE25E96E000EDF21EA6EEECFE0F031
:04024E00EFD71200D4
:10025200DEC004F0DFC005F004C0E9FF05C0EAFF1C
:10026200EE5203E0044A052AF7D704C002F005C0A3
:1002720003F0044A052AE0C000F0E1C001F00001E9
:10028200E04BE12B00C0E9FF01C0EAFF02C0E1FF41
:1002920003C0E2FFEECFE6FF02C0E9FF03C0EAFFC0
:1002A200EE5201E0E2D7DEC000F0DFC001F0120042
:0C02B2000E0E0D6E0D2EFED70000120087
:1002BE000900F5CFE6FF0006FBE10106F9E11200A9
:1002CE00820E0001C86F000EC96FE50ECA6F000ED8
:1002DE00CB6FFF0EC46FFF0EC56F000EC66F000E04
:1002EE00C76FFF0EC06FFF0EC16F000EC26F000E04
:1002FE00C36FFF0ECC6FFF0ECD6F000ECE6F000ED4
:10030E00CF6FAC8A900EAB6E948E949C9EAA03D047
:08031E00AECF00F0FBD7120086
:10032600FF0E0001D06FFF0ED16FFF0ED26FFF0ED2
:10033600D36FC26ABF1D006E0050C116070EC012F1
:06034600C08EC28012000F
:0A034C0094909492949494961200F9
:10035600C26A0001BF1D006E0050C116070EC01212
:10036600C08ED4C000F000360090003600900050D9
:10037600C212C2809BDFC282C2A201D0FDD7C4CF07
:1003860001F0006AC3500012000E0112C290120062
:100396000001DA6BDB6BD4C0DCF0D5C0DDF0800E7B
:1003A600D519006E800E005C02E1000ED45D0BE2F2
:1003B600010EDA6F000EDB6FD4510008DC6FD5C07A
:1003C600DDF0000EDD57DCC0DEF0DDC0DFF0D6C0AC
:1003D600E0F0D7C0E1F0B0DE060ED86F000ED96FA0
:1003E600000E006ED951005C02E1D851000819E2F6
:1003F600D851D625E16ED951D721E26E010ED85DCE
:10040600006E000ED959016E0050D625E96E0150D6
:10041600D721EA6EEECFE6FF010ED85F000ED95B5C
:10042600DFD7D6C0E1FFD7C0E2FF200EE66EDA5175
:10043600DB111AE0D86BD96BD851D625E96ED951A4
:10044600D721EA6EEE50200A03E1D84BD92BF4D718
:10045600010ED85F000ED95BD851D625E16ED95171
:0A046600D721E26E2D0EE66E1200A3
:100470000001D66BD76BD4C003F0D5C004F0D4C054
:1004800005F0D5C006F003C0E9FF04C0EAFFEE5056
:10049000200A04E1D651D71101E110D0010ED66F28
:1004A000000ED76F03C0E9FF04C0EAFF05C0E1FFFB
:1004B00006C0E2FFEECFE6FF054A062A03C001F0C0
:1004C00004C002F0034A042A01C0E9FF02C0EAFFA7
:1004D000EE50000AD8E1D4C000F0D5C001F01200FF
:1004E000270E0001DE6F000EDF6F1D0EE06F000EA5
:1004F000E16F6EDE270EDE6F000EDF6F150EE06F10
:10050000000EE16FA6DE270EDE6F000EDF6F200EFD
:10051000E06F000EE16F9DDE270EDE6F000EDF6FD5
:100520001E0EE06F000EE16F94DE270EDE6F000EF0
:10053000DF6FAB0EE06F000EE16F8BDE270EDE6F1C
:10054000000EDF6FA90EE06F000EE16F82DE270E56
:10055000DE6F000EDF6FB40EE06F000EE16F79DE2C
:10056000270EDE6F000EDF6FB20EE06F000EE16F40
:1005700070DE270EDE6F000EDF6FA20EE06F000E42
:10058000E16F67DE270EDE6F000EDF6F9A0EE06F01
:10059000000EE16F5EDE270EDE6F000EDF6F930E42
:1005A000E06F000EE16F55DE270EDE6F000EDF6F8D
:1005B0009F0EE06F000EE16F4CDE270EDE6F000E27
:1005C000DF6F9C0EE06F000EE16F43DE270EDE6FE3
:1005D000000EDF6F24DE030E0B6E080E0C6E770E1E
:1005E0000D6E0D2EFED70C2EFCD70B2EFAD7120057
:1005F0000050086E0150006E016A026A036A0B6ABD
:100600000C6A960E036E0A6A00C001F008C000F082
:08061000086A026A57DD1200BE
:100618000450000A12E10550000A0FE10650000AD2
:100628000CE10750000A09E1FF0E006EFF0E016E93
:100638007F0E026EFF0E036EA4D0086A096A075087
:10064800D8B4B7EF03F00350D8B4BBEF03F00250AF
:1006580006180A6E028E068E0E6A02C008F001C0E5
:100668000CF000C00DF004500D5E0550D8A0053CFC
:100678000C5E0650D8A0063C085E086A0C6A0D6A33
:10068800D8A04EEF03F0D89002320132003208327F
:10069800010E0E6E0750035ED8A05BEF03F07E0ECE
:1006A8000E240326D8B0BFEF03F061EF03F07E0EEF
:1006B8000E240326D8A0C3EF03F0180E0B6E0D36D8
:1006C8000C3608360036013602360E360450005E07
:1006D8000550D8A0053C015E0650D8A0063C025E35
:1006E80006340E120EA07CEF03F00D8087EF03F0A6
:1006F800045000260550D8B0053C01260650D8B055
:10070800062802260D900B2E63EF03F0ADEF03F0E1
:10071800D8900036013602360E360450005E055079
:10072800D8A0053C015E0650D8A0063C025E0634FF
:100738000E10010B0D26D8B00C2AD8B4082AD8A45C
:10074800ADEF03F008320C320D32032AD8B4BFEFF4
:1007580003F00AAE089E0850026E0C50016E0D5050
:10076800006EC5EF03F0010EE2DCC5EF03F0020EE8
:100778007DDCC5EF03F0040E87DCC5EF03F0080E3F
:0407880049DC120036
:10078C000B6A0C6A0A6A0350D8B410EF04F0028E9C
:10079C008E0E035E03BED8EF03F0D8B4D8EF03F08F
:1007AC0014EF04F0036C080E035CD8A0EFEF03F019
:1007BC00036E013602C001F0026A080E035CD8A079
:1007CC00EFEF03F00136016A0350D8A4D890F9EF8B
:1007DC0003F00350D8B4F9EF03F0D8900232013291
:1007EC00032EF3EF03F00BBC01A006EF04F0D8A02E
:1007FC0006EF04F0012AD8B4022A02BE23EF04F05B
:10080C000AAE28EF04F0021E011E012AD8B4022AF7
:10081C0028EF04F0026A016A28EF04F00B800BAE9B
:10082C002CEF04F0026A0AAE2CEF04F0FF0E026EFD
:10083C00016E0A3602322CEF04F0010E0C6E2EDC27
:10084C002EEF04F0000E0C6E2EEF04F0FF0E0C6E6B
:0A085C000150006E0250016E120000
:1008660060EC05F070DDB886B06ACF0EAF6EAC8472
:100876002BDD56DDD46B6CDD00C08FF001C090F02F
:10088600B4DE480E046EE10E056E020E066E810E93
:10089600076EBFDE78DF00C091F001C092F0000E57
:1008A600015C02E1320E005C14E2010E00018B6F66
:1008B600000E8C6F010E8D6F000E8E6FBB6BBC6BC6
:1008C600010EBD6F000EBE6F829082928284829668
:1008D60055D00001000E925D02E1320E915D1BE3E0
:1008E600000E925D02E1960E915D15E2010E8B6F90
:1008F600000E8C6F010E8D6F000E8E6F010EBB6F9A
:10090600000EBC6F010EBD6F000EBE6F829082920C
:100916008294829633D0000E925D02E1960E915D2E
:1009260019E3000E925D02E1C80E915D13E28B6B36
:100936008C6B010E8D6F000E8E6F010EBB6F000E5D
:10094600BC6F010EBD6F000EBE6F828082928294D4
:10095600829614D0000E925D02E1C80E915D0EE300
:100966008B6B8C6B8D6B8E6B010EBB6F000EBC6F31
:10097600BD6BBE6B828082828294828691C0D4F0E7
:1009860092C0D5F0200ED66F000ED76F01DD200E77
:10099600D46F000ED56F69DD8BC0D4F08CC0D5F056
:1009A600AB0ED66F000ED76FF3DCAB0ED46F000E16
:1009B600D56F5BDD8DC0D4F08EC0D5F0B40ED66F8A
:1009C600000ED76FE5DCB40ED46F000ED56F4DDD8B
:1009D600BBC0D4F0BCC0D5F0A20ED66F000ED76F48
:1009E600D7DCA20ED46F000ED56F3FDDBDC0D4F0AC
:1009F600BEC0D5F0930ED66F000ED76FC9DC930E2E
:0E0A0600D46F000ED56F31DD68DD34D7FFD719
:100AC00010EE15F0AB0E006E010E016E140EF66EF8
:0E0AD0000A0EF76E000EF86E5FEC01F01200D9
:080A1400244461646F732C009F
:010A1C0000D9
:020A1D002C00AB
:070A1F0000000000000000D0
:100A260020000000000000000000000000000000A0
:100A360000000000000000000000000000000000B0
:100A460000000000000000000000000000000000A0
:100A56000000000000000000000000000000000090
:100A66000000000000000000000000000000000080
:100A76000000000000000000000000000000000070
:040A8600000000006C
:020A8A0000006A
:020A8C00000068
:020A8E00000066
:020A9000000064
:070A9200000000000000005D
:020A99002C002F
:030A9B000D0A0041
:030A9E002C2A00FF
:070AA100000000000000004E
:020AA8002C0020
:070AAA000000000000000045
:020AB1002C0017
:070AB300000000000000003C
:020ABA0000003A
:020ABC00000038
:010ABE003007
:020000040030CA
:0D000100021F1EFF8381FF0FC00FE00F40A4
:00000001FF
