:1000000046EF02F00000000000EF00F000000000EA
:0A0010000000000000000000F3D71C
:10001C00086A096A100E0C6E013408360936045051
:10002C00085E0550D8A0053C095ED8B007D0045036
:10003C0008260550D8B0053C0926D8900036013664
:06004C000C2EEAD71200A1
:0E005200ACB202D00000FCD772C0ADFF1200AD
:100060006F6A050E6F5C0AE26F506D24E16E000E40
:100070006E20E26E200EE66E6F2AF3D76F506D246D
:10008000E16E000E6E20E26EE66A6F066F506D2420
:10009000706E000E6E20716E0A0E046E000E056EFC
:1000A0006BC000F06CC001F0B9DF08C000F009C0FF
:1000B00001F0300E002670C0E1FF71C0E2FF00C009
:1000C000E6FF0A0E046E000E056E6BC000F06CC0F9
:1000D00001F0A4DF00C06BF001C06CF0000E01184D
:1000E00002E1000E001801E102D06F06CFD7120026
:0C00F0000E0E0D6E0D2EFED7000012004B
:1000FC006E6A6BC0E9FF6CC0EAFFEECF6DF06D501D
:10010C00000A0DE06DC072F09EDF6E2A6E506B24FB
:10011C00E96E000E6C20EA6EEECF6DF0F0D7120097
:10012C006BC004F06CC005F004C0E9FF05C0EAFF29
:10013C00EE5203E0044A052AF7D704C002F005C0CA
:10014C0003F0044A052A6DC000F06EC001F06D4A40
:10015C006E2A00C0E9FF01C0EAFF02C0E1FF03C044
:10016C00E2FFEECFE6FF02C0E9FF03C0EAFFEE526A
:0E017C0001E0E3D76BC000F06CC001F0120090
:10018A006BC004F06CC005F004C002F005C003F0B7
:10019A00044A052A6DC000F06EC001F06D4A6E2A4D
:1001AA0000C0E9FF01C0EAFF02C0E1FF03C0E2FFAD
:1001BA00EECFE6FF02C0E9FF03C0EAFFEE5201E01C
:0C01CA00E3D76BC000F06CC001F0120025
:1001D600250E6B6E000E6C6E240E6D6E000E6E6E2E
:1001E600D1DF250E6B6E000E6C6E400E6D6E000E2E
:1001F6006E6E99DF250E6B6E000E6C6E390E6D6E8F
:10020600000E6E6E90DF250E6B6E000E6C6E1C0E71
:100216006D6E000E6E6E87DF250E6B6E000E6C6EB9
:10022600150E6D6E000E6E6E7EDF250E6B6E000E69
:100236006C6E210E6D6E000E6E6E75DF250E6B6E8A
:10024600000E6C6E1E0E6D6E000E6E6E6CDF250E51
:100256006B6E000E6C6E4FDF030E0B6E080E0C6E8F
:10026600770E0D6E0D2EFED70C2EFCD70B2EFAD761
:02027600120074
:10027800FF0E5D6EFF0E5E6EFF0E5F6EFF0E606E10
:10028800C26A4C1C006E0050C116070EC012C08E08
:04029800C28012000E
:06029C00010E936E12003A
:1002A2000900F5CFE6FF0006FBE10106F9E11200C5
:1002B200520E516E000E526E720E536E000E546E3E
:1002C200FF0E4D6EFF0E4E6E000E4F6E000E506E04
:1002D200FF0E596EFF0E5A6E000E5B6E000E5C6EC4
:1002E200FF0E556EFF0E566E000E576E000E586EC4
:1002F200AC8A900EAB6E948E949C9EAA03D0AECF25
:0603020000F0FBD7120021
:10030800636A646A61C003F062C004F061C005F00A
:1003180062C006F003C0E9FF04C0EAFFEE50200AFD
:1003280004E16350641001E110D0010E636E000E09
:10033800646E03C0E9FF04C0EAFF05C0E1FF06C020
:10034800E2FFEECFE6FF054A062A03C001F004C02B
:1003580002F0034A042A01C0E9FF02C0EAFFEE5096
:0E036800000AD8E161C000F062C001F012008E
:10037600676A686A61C069F062C06AF0800E6218D6
:10038600006E800E005C02E1000E615C0BE2010E65
:10039600676E000E686E61500008696E62C06AF092
:1003A600000E6A5669C06BF06AC06CF063C06DF0EF
:1003B60064C06EF052DE060E656E000E666E000EAE
:1003C600006E6650005C02E16550000819E2655057
:1003D6006324E16E66506420E26E010E655C006E79
:1003E600000E6658016E00506324E96E01506420C9
:1003F600EA6EEECFE6FF010E655E000E665ADFD7A7
:1004060063C0E1FF64C0E2FF200EE66E675068102D
:100416001AE0656A666A65506324E96E6650642070
:10042600EA6EEE50200A03E1654A662AF4D7010E09
:10043600655E000E665A65506324E16E6650642060
:08044600E26E2D0EE66E1200BD
:10044E00C26A4C1C006E0050C116070EC012C08E40
:10045E0061C000F000360090003600900050C212CD
:10046E00C2803FDEC282C2A201D0FDD7C4CF01F04E
:0E047E00006AC3500012000E0112C29012005C
:10048C009CEC02F005DFB886B06ACF0EAF6EAC8480
:10049C000ADFECDE81A005D0010E4A6E000E4B6E19
:1004AC0004D081B002D04A6A4B6A616ACADF00C0CC
:1004BC0048F001C049F04AC061F04BC062F0390EFF
:1004CC00636E000E646E51DF390E616E000E626E4B
:1004DC0015DF48C061F049C062F0150E636E000E66
:1004EC00646E43DF150E616E000E626E07DF6DDE0B
:0404FC00D1D7FFD77E
:1005380010EE15F0380E006E010E016E000EF66E0C
:0E054800050EF76E000EF86E51EC01F0120079
:0705000000000000000000F4
:020507002C00C6
:030509000D0A00D8
:03050C002C2A0096
:01050F0000EB
:1005100020000000000000000000000000000000BB
:0405200000000000D7
:0705240000000000000000D0
:08052B00244461646F732C008D
:020533000000C6
:020535000000C4
:010537003093
:020000040030CA
:0D000100021F1EFF8181FF0FC00FE00F40A6
:00000001FF
